{
  "contractName": "SimpleStorage",
  "abi": [
    {
      "anonymous": false,
      "inputs": [
        {
          "indexed": false,
          "internalType": "uint256",
          "name": "newValue",
          "type": "uint256"
        }
      ],
      "name": "setEvent",
      "type": "event"
    },
    {
      "constant": false,
      "inputs": [
        {
          "internalType": "uint256",
          "name": "x",
          "type": "uint256"
        }
      ],
      "name": "set",
      "outputs": [],
      "payable": false,
      "stateMutability": "nonpayable",
      "type": "function"
    },
    {
      "constant": false,
      "inputs": [
        {
          "internalType": "uint256",
          "name": "x",
          "type": "uint256"
        }
      ],
      "name": "increment",
      "outputs": [],
      "payable": false,
      "stateMutability": "nonpayable",
      "type": "function"
    },
    {
      "constant": true,
      "inputs": [],
      "name": "get",
      "outputs": [
        {
          "internalType": "uint256",
          "name": "",
          "type": "uint256"
        }
      ],
      "payable": false,
      "stateMutability": "view",
      "type": "function"
    }
  ],
  "bytecode": "0x608060405234801561001057600080fd5b5061018c806100206000396000f3fe608060405234801561001057600080fd5b50600436106100415760003560e01c806360fe47b1146100465780636d4ce63c146100745780637cf5dab014610092575b600080fd5b6100726004803603602081101561005c57600080fd5b81019080803590602001909291905050506100c0565b005b61007c610103565b6040518082815260200191505060405180910390f35b6100be600480360360208110156100a857600080fd5b810190808035906020019092919050505061010c565b005b806000819055507fec7b642afdc1c88606eb6b3aa47041e47aa03c1b643dde91027f2ba433efb5ff6000546040518082815260200191505060405180910390a150565b60008054905090565b8060008082825401925050819055507fec7b642afdc1c88606eb6b3aa47041e47aa03c1b643dde91027f2ba433efb5ff6000546040518082815260200191505060405180910390a15056fea265627a7a723158205e2140ae4aee82d2ba46c1907960728140abaec86da54b9ebd6036973052a89064736f6c63430005100032",
  "source": "// SPDX-License-Identifier: MIT\npragma solidity >=0.4.22 <0.9.0;\n\ncontract SimpleStorage {\n  uint storedData;\n\n  event setEvent(uint newValue);\n\n  function set(uint x) public {\n    storedData = x;\n    emit setEvent(storedData);\n  }\n\n  function increment(uint x) public {\n    storedData += x;\n    emit setEvent(storedData);\n  }\n\n  function get() public view returns (uint) {\n    return storedData;\n  }\n}\n",
  "sourcePath": "/home/tarcnux/consensys/SolidityByExample/SimpleStorage/contracts/SimpleStorage.sol",
  "compiler": {
    "name": "solc",
    "version": "0.5.16+commit.9c3226ce.Emscripten.clang"
  },
  "schemaVersion": "3.4.3",
  "updatedAt": "2021-09-26T02:19:35.575Z",
  "networkType": "ethereum",
  "devdoc": {
    "methods": {}
  },
  "userdoc": {
    "methods": {}
  }
}